:020000040000FA
:100000000A128A11FC2FFF1B0D2883137F188317F8
:100010000008840A0319FF0A080000308A00040857
:10002000840A82070034013400340A340034643412
:100030000034E83403341034273454346F346D34CE
:1000400061346E3464346F34203475346E3461340A
:1000500020346D34753465347334743472346134DF
:100060002034643465346C342034633461346E3449
:1000700061346C34203431340D340A340034653446
:100080006C342034763461346C346F347234203400
:10009000653473343A342034253475340D340A34DD
:0200A00000342A
:100BCA00F00083160313981CEB2DEC2DE62D70080C
:100BDA008312031399000800831603130713871758
:100BEA009A010C3099008312031398178316031382
:100BFA009816831203130C1218160800831603138F
:100C0A008514831203131F08C33904389F008316FF
:100C1A0003139F121F12831203131F083F398038D0
:100C2A009F00831603139F17831203131F140330A5
:100C3A008316031788000800F301F4013B2E73089A
:100C4A007107840072080318720AFF000A128A11D7
:100C5A0003200A128A110A128A11E5250A128A1138
:100C6A000130F3070318F40A0030F4077308710718
:100C7A00840072080318720A83120313FF000A120F
:100C8A008A1103200A128A11003A031D4D2E4E2E94
:100C9A00242E0800780879040319542E552E842E20
:100CAA00FD01FD0A632E01300310F80DF90DFF3E18
:100CBA00031D592E0130FC007C08FD07F91F662E22
:100CCA00672E582E79087B02031D6D2E78087A024A
:100CDA00031C702E712E772E7808FA027908031CED
:100CEA00FB03FB0201300310F90CF80CFF3E031D55
:100CFA00782E0130FD02031D832E842E672E7B0879
:100D0A00F9007A08F8000800F501F6017008710484
:100D1A000319902E912EC82EF701F70A9F2E013043
:100D2A000310F00DF10DFF3E031D952E0130F40066
:100D3A007408F707F11FA22EA32E942E0130031078
:100D4A00F50DF60DFF3E031DA42E71087302031D57
:100D5A00B02E70087202031CB32EB42EBB2E70087C
:100D6A00F2027108031CF303F30275140130031035
:100D7A00F10CF00CFF3E031DBC2E0130F702031DDF
:100D8A00C72EC82EA32E7608F1007508F0000800B9
:100D9A000A128A11F1250A128A110A128A110326E5
:100DAA000A128A11831603130610831203130614F8
:100DBA00063083120313AF001330AE00AD30AD001E
:100DCA00AD0BE52EAE0BE52EAF0BE52E831203130A
:100DDA000610063083120313AF001330AE00AD3095
:100DEA00AD00AD0BF62EAE0BF62EAF0BF62E0B307A
:100DFA00F1008030F2000A128A1121260A128A11A1
:100E0A00831203139F149F180B2F0C2F082F1E08F1
:100E1A00C500831603131E0883120313C4002D3062
:100E2A00AD002D08A0004508A2004408A1003030FA
:100E3A000A128A112F270A128A113030F100003063
:100E4A00F2000A128A1121260A128A11DA2E0A12CD
:100E5A008A11002883120313AB002130A300230850
:100E6A00A700E52F25302C0603193C2F3D2F492FCB
:100E7A002C08A3002B088400230883138000013068
:100E8A00A3002308AB07E52FA601502FC030A3000B
:100E9A002308A6046A2F0130A007FF302007840028
:100EAA000A128A110D200A128A11AC00A300A401A9
:100EBA002408003A0319622FE52F2308003A031980
:100ECA00F72F753A03194B2FE52F27088400831350
:100EDA000008A800840A0008A9000230A300230819
:100EEA00A707AC01AC0A2C08A3002307013E840023
:100EFA000A128A110D200A128A11A4000A128A11F2
:100F0A000D200A128A11A50025082902031D8F2F18
:100F1A00240828020318922F932F942F9E2F013012
:100F2A00A3002308AC0705302C06031D9D2F9E2F16
:100F3A00782F2C08A3002308AA00DC2F0A30F80017
:100F4A000030F9002A08A3002307013E84000A1290
:100F5A008A110D200A128A11F0000A128A110D2034
:100F6A000A128A11F1002908F3002808F2000A126D
:100F7A008A1189260A128A117108FB007008FA0080
:100F8A000A128A114F260A128A117808303E8312F1
:100F9A000313A4002408AC002C08A3002B08840027
:100FAA002308831380000130A3002308AB07FF3016
:100FBA00A3002308AA072A0A031DE42FE52FA32F5B
:100FCA000130A007FF30200784000A128A110D2081
:100FDA000A128A11A3002308AC002C08031DF62F5D
:100FEA00F72F372F2B088400831380010800830111
:060FFA000A128A11CD2E3F
:04400E00D4E4FFFFF8
:00000001FF
