:020000040000FA
:060000000A128A11FC2F18
:10000A0083160313071387179A010C309900831676
:10001A0003178711831603131811981118128312E4
:10002A0003139817831603130C1218131810981633
:10003A00831203130C12181318168C128316031347
:10004A008C1683120313981183160317871307124A
:10005A000800443083160313A3008030A200003046
:10006A00A1000030A000403083120313A700A03083
:10007A00A6000030A5000030A400831603133A0836
:10008A00F0003B08F100F201F30100300A168A156C
:10009A0046270A128A11730883120313AB007208E7
:1000AA00AA007108A9007008A8000A128A159F24DC
:1000BA000A128A1183120313270883160313A7004F
:1000CA0083120313260883160313A600831203134D
:1000DA00250883160313A500831203132408831625
:1000EA000313A4000A168A1190210A128A11831690
:1000FA0003132308C9002208C8002108C7002008E2
:10010A00C6004030A3003C30A2008930A100223052
:10011A00A0004908A7004808A6004708A500460805
:10012A00A4000A168A1190210A128A11831603134F
:10013A002308C9002208C8002108C7002008C600F1
:10014A00490883120313E90083160313480883122C
:10015A000313E80083160313470883120313E70007
:10016A0083160313460883120313E6004030ED009A
:10017A00F030EC000030EB000030EA000A168A1575
:10018A00D8220A128A1183120313690883160313E9
:10019A00A30083120313680883160313A2008312B1
:1001AA000313670883160313A10083120313660857
:1001BA0083160313A000423083120313A700C8302A
:1001CA00A6000030A5000030A4004030D500F03071
:1001DA00D4000030D3000030D2008316031349083C
:1001EA0083120313D90083160313480883120313D7
:1001FA00D80083160313470883120313D700831604
:10020A000313460883120313D6000A168A117825A7
:10021A000A128A11831203135508AB005408AA0064
:10022A005308A9005208A8000A128A159F240A1224
:10023A008A1183120313270883160313A700831254
:10024A000313260883160313A60083120313250833
:10025A0083160313A50083120313240883160313BA
:10026A00A4000A168A1190210A128A11831603130E
:10027A002308C1002208C0002108BF002008BE00D0
:10028A003E30A300C730A200AE30A1001430A00057
:10029A00C23083120313D500C830D4000030D30013
:1002AA000030D20083160313410883120313D900C6
:1002BA0083160313400883120313D800831603130B
:1002CA003F0883120313D700831603133E088312D1
:1002DA000313D6000A168A1178250A128A11831284
:1002EA000313550883160313A70083120313540834
:1002FA0083160313A60083120313530883160313EA
:10030A00A50083120313520883160313A4000A16C6
:10031A008A1190210A128A11831603132308C50031
:10032A002208C4002108C3002008C2004508BD00F5
:10033A004408BC004308BB004208BA000800831600
:10034A000313BF00A130A9002908B200E52F253008
:10035A0046060319B129B229BE294608A9003F0851
:10036A0084002908831380000130A9002908BF07E7
:10037A00E52FB301B401200884000A128A150A2065
:10038A000A128A112E3A031DCB29CC29112A3417B5
:10039A000130A9002908A007C001C101002A0A30BA
:1003AA00F0000030F100831603134108F3004008FF
:1003BA00F2000A168A15FC220A128A11710883169B
:1003CA000313C1007008C000200884000A128A15AD
:1003DA000A200A128A11D03EA900FF300318003001
:1003EA00AA002908C0070318C10A2A08C107013050
:1003FA00A9002908A007200884000A128A150A20E1
:10040A000A128A110A168A15AC220A128A110318CC
:10041A000F2A102AD429172AC001C1013416172A13
:10042A003415332A013083160313A007FF3020073F
:10043A0084000A128A150A200A128A11C600A90023
:10044A00AA012A08003A03192B2AE52F2908003A9B
:10045A000319F72F663A0319152AE52F00303305D9
:10046A00A90007303405AA0029082A0403193E2ADC
:10047A003F2AA02F341E422A432A472A0630C000A8
:10048A000030C1003208840083130008C200840AC5
:10049A000008C300840A0008C400840A0008C500D2
:1004AA000430A9002908B2074508F3004408F200FD
:1004BA004308F1004208F0000030F7000030F6006F
:1004CA000030F5000030F4000A168A15A4260A1234
:1004DA008A110318712A722A8F2A83160313450870
:1004EA00F3004408F2004308F1004208F0000A163B
:1004FA008A1595220A128A11730883160313C500F6
:10050A007208C4007108C3007008C2000330B30443
:10051A000030B40483160313B901BA014508F30085
:10052A004408F2004308F1004208F0000030F700E6
:10053A000030F6000030F5000030F4000A168A1583
:10054A00F4230A128A110318AB2AAC2A9C2B031033
:10055A0083160313440D450D823EB900FF3003187C
:10056A000030BA00FF30B9070318BA0AFF30BA07D9
:10057A000330F0000030F1003A08F3003908F200C5
:10058A000A168A15FC220A128A11710883160313A5
:10059A00BA007008B9000A30F7000030F8003A08CB
:1005AA00FA003908F9000A168A15B6250A128A11BC
:1005BA00780883160313BA007708B900BA1FE62A27
:1005CA00E72AED2AFF30B9070318BA0AFF30BA073B
:1005DA003903FF3A0A128A1540210A128A11831234
:1005EA000313410883160313BE0083120313400842
:1005FA0083160313BD00831203133F0883160313E4
:10060A00BC00831203133E0883160313BB0045087C
:10061A0083120313A70083160313440883120313D8
:10062A00A60083160313430883120313A500831637
:10063A000313420883120313A400831603133E080C
:10064A0083120313AB00831603133D0883120313AB
:10065A00AA00831603133C0883120313A900831606
:10066A0003133B0883120313A8000A128A159F2456
:10067A000A128A1183120313270883160313BE0072
:10068A0083120313260883160313BD008312031370
:10069A00250883160313BC00831203132408831648
:1006AA000313BB003E08F3003D08F2003C08F100CA
:1006BA003B08F0003F30F7008030F6000030F500CC
:1006CA000030F4000A168A15A4260A128A110318A1
:1006DA006F2B702B792BFF3083160313B90703187E
:1006EA00BA0AFF30BA079C2B831603133E08F3009D
:1006FA003D08F2003C08F1003B08F0004130F700E9
:10070A002030F6000030F5000030F4000A168A1591
:10071A00A4260A128A11031C932B942B9C2B0130BA
:10072A0083160313B9070318BA0A0030BA078316E7
:10073A0003134108803AFF0080307F02031DA72B74
:10074A000D3040020318AA2BAB2BF22B831603138E
:10075A0040080A168A116D230A128A11831203139A
:10076A004108D5004008D4003F08D3003E08D20013
:10077A0083160313450883120313D9008316031340
:10078A00440883120313D800831603134308831201
:10079A000313D70083160313420883120313D600E8
:1007AA000A168A1178250A128A1183120313550828
:1007BA0083160313C5008312031354088316031305
:1007CA00C40083120313530883160313C30083124E
:1007DA000313520883160313C200831603133A083D
:1007EA00803AFF0080307F02031DFD2B0A30390258
:1007FA000318002C012C522C831603134508F3000E
:10080A004408F2004308F1004208F0000030F70003
:10081A000030F6000030F5000030F4000A168A15A0
:10082A00F4230A128A1103181B2C1C2CC42C8316BD
:10083A000313450883120313D400831603134408D1
:10084A0083120313D300831603134308831203137B
:10085A00D20083160313420883120313D1000A122B
:10086A008A15C4200A128A118312031354085304E6
:10087A0052045104031D422C432CC42C8316031327
:10088A003A08803AFF0080307F02031D4E2C023066
:10089A003902031C512C522CC42C831603133E0814
:1008AA00F3003D08F2003C08F1003B08F00040303C
:1008BA00F7008930F6007030F5005F30F4000A1650
:1008CA008A15A4260A128A1103186C2C6D2C762C10
:1008DA00F73083160313B9070318BA0AFF30BA07A9
:1008EA007E2CF83083160313B9070318BA0AFF30AF
:1008FA00BA0739080A128A1540210A128A11831284
:10090A000313410883160313BE008312031340081E
:10091A0083160313BD00831203133F0883160313C0
:10092A00BC00831203133E0883160313BB00450859
:10093A00F3004408F2004308F1004208F0003E08C0
:10094A00F7003D08F6003C08F5003B08F4000A16DB
:10095A008A11D2200A128A11730883160313B80067
:10096A007208B7007108B6007008B5000030C500FB
:10097A000030C4000030C3000030C200482D831686
:10098A000313450883120313D40083160313440880
:10099A0083120313D300831603134308831203132A
:1009AA00D20083160313420883120313D1000A12DA
:1009BA008A15C4200A128A11831203135408831653
:1009CA000313B80083120313530883160313B700E3
:1009DA0083120313520883160313B60083120313F8
:1009EA00510883160313B5003808F3003708F200DC
:1009FA003608F1003508F00000300A168A15462735
:100A0A000A128A11730883120313E9007208E800B4
:100A1A007108E7007008E60083160313450883127D
:100A2A000313ED0083160313440883120313EC0027
:100A3A0083160313430883120313EB00831603136D
:100A4A00420883120313EA000A168A15D8220A12E8
:100A5A008A1183120313690883160313C5008312CC
:100A6A000313680883160313C40083120313670869
:100A7A0083160313C3008312031366088316031332
:100A8A00C200B901BA01C601C60A4608A900013066
:100A9A000310A90DFF3E031D4D2D0310290D693EBC
:100AAA0084000A128A150A200A128A11AA000A1256
:100ABA008A150A200A128A11AB000A128A150A201C
:100ACA000A128A11AC000A128A150A200A128A111D
:100ADA00AD002D083802031D7C2D2C083702031D9A
:100AEA007C2D2B083602031D7C2D2A08350203189B
:100AFA007F2D802D812D8B2D0130A9002908C60755
:100B0A000A304606031D8A2D8B2D4A2D03303305E4
:100B1A00A90000303405AA0029082A040319962DD1
:100B2A00972D092E2D30A9003F0884002908831328
:100B3A0080000130A9002908BF07092E4608A9002C
:100B4A0001300310A90DFF3E031DA62D0310290D28
:100B5A00693E84000A128A150A200A128A11F000D4
:100B6A000A128A150A200A128A11F1000A128A1533
:100B7A000A200A128A11F2000A128A150A200A1297
:100B8A008A11F3003808F7003708F6003608F5002E
:100B9A003508F4000A168A1550250A128A117308B4
:100BAA0083160313BE007208BD007108BC007008EA
:100BBA00BB000030F3000030F2000030F1000A30D0
:100BCA00F0003E08F7003D08F6003C08F5003B0837
:100BDA00F4000A168A1542240A128A117308831627
:100BEA000313BE007208BD007108BC007008BB0088
:100BFA003B08303EA9003F0884002908831380007F
:100C0A000130A9002908BF070130C602460A031DA0
:100C1A000F2E102EA32D242E303083160313A90075
:100C2A003F0884002908831380000130A90029089D
:100C3A00BF07FF30B9070318BA0AFF30BA073A08E4
:100C4A00803AFF0080307F02031D2D2E01303902C9
:100C5A000318302E312E112E831603134108803AC1
:100C6A00FF0080307F02031D3C2E09304002031C26
:100C7A003F2E402E472E083083160313A900290859
:100C8A00C6004D2E831603134008A9002908C60082
:100C9A004608A900AA012908C0022A08031CC103A0
:100CAA00C102460803195A2E5B2E662E2E30A90061
:100CBA003F0884002908831380000130A90029080D
:100CCA00BF0746080A128A1540210A128A1183129E
:100CDA000313410883160313B10083120313400858
:100CEA0083160313B000831203133F0883160313FA
:100CFA00AF00831203133E0883160313AE003108B4
:100D0A0083120313AB0083160313300883120313F1
:100D1A00AA00831603132F0883120313A90083164C
:100D2A0003132E0883120313A8008316031345081E
:100D3A0083120313A70083160313440883120313B1
:100D4A00A60083160313430883120313A500831610
:100D5A000313420883120313A4000A128A159F245C
:100D6A000A128A11831203132708D4002608D30013
:100D7A002508D2002408D1000A128A15C4200A12B2
:100D8A008A1183120313540883160313B8008312BB
:100D9A000313530883160313B7008312031352086D
:100DAA0083160313B6008312031351088316031321
:100DBA00B500802F4608A90001300310A90DFF3E97
:100DCA00031DE22E0310290D693E84000A128A15BA
:100DDA000A200A128A11F0000A128A150A200A1237
:100DEA008A11F1000A128A150A200A128A11F200DF
:100DFA000A128A150A200A128A11F3003808F70023
:100E0A003708F6003608F5003508F4000A168A1580
:100E1A0050250A128A11730883160313BE0072083A
:100E2A00BD007108BC007008BB000030F300003040
:100E3A00F2000030F1000A30F0003E08F7003D08E9
:100E4A00F6003C08F5003B08F4000A168A1542240D
:100E5A000A128A11730883160313BE007208BD00B2
:100E6A007108BC007008BB003B08303EA9003F086F
:100E7A0084002908831380000130A9002908BF07CC
:100E8A004608A90001300310A90DFF3E031D482F93
:100E9A000310290D693E84000A128A150A200A12D3
:100EAA008A11F0000A128A150A200A128A11F10020
:100EBA000A128A150A200A128A11F2000A128A15DF
:100ECA000A200A128A11F3003808F7003708F600D8
:100EDA003608F5003508F4000A168A1542240A1263
:100EEA008A11730883160313B8007208B7007108D1
:100EFA00B6007008B5000130C602460A031D862FE7
:100F0A00872FDF2E992F3030A9003F088400290847
:100F1A00831380000130A9002908BF07FF30C007EA
:100F2A000318C10AFF30C10740084104031D9E2F60
:100F3A009F2F882FE52F40084104031DA52FA62FB8
:100F4A00B42F3808370436043504031DAD2FAE2FED
:100F5A00B42F0130C0070318C10A0030C107410885
:100F6A00803A803C031DBB2F400846020318BE2F5F
:100F7A00BF2FC02FCF2F831603134108803AA90031
:100F8A0080302902031DCB2F460840020318CE2FBA
:100F9A00CF2FCF2F0330831603133305A900003058
:100FAA003405AA0029082A040319DC2FDD2FE52FAE
:100FBA002D30A9003F088400290883138000B9292D
:100FCA000130A007FF30200784000A128A150A2080
:100FDA000A128A11A9002908C6004608031DF62F1D
:100FEA00F72FAC293F08840083138001080083018E
:100FFA000A168A151F2EFF1B0A2883137F188317C8
:10100A000008840A0319FF0A080008308A00040845
:10101A00840A820700340034003480343F340034B8
:10102A0000342034413400340034C83442340034AB
:10103A0000347A344434003440341C3446340034A6
:10104A005034C3344734003424347434493480343B
:10105A00963418344B342034BC34BE344C342834DF
:10106A006B346E344E34F934023415345034EC3463
:10107A007834AD346034CA34F234493471340034CB
:10108A00003480343F34CD34CC34CC343D340A344B
:10109A00D73423343C346F34123483343A3417341B
:1010AA00B734D1343834AC34C53427343734BD344A
:1010BA003734863435349534BF34D63433347734C0
:1010CA00CC342B3432345F34703489343034FF34C6
:1010DA00E634DB342E340834E5343C341E346034D0
:1010EA004234A2340D3401340034003400340A345A
:1010FA000034003400346434003400340034E834FA
:10110A000334003400341034273400340034A0345B
:10111A00863401340034403442340F34003480348D
:10112A009634983400340034E134F534053400340C
:10113A00CA349A343B34743465346D3470343D3473
:10114A00203425342E3435346634203476343D3414
:10115A00203425342E343534663420340D340A34A0
:10116A000034533461346C34753464346F3421344C
:08117A0021340D340A34003465
:10118800031083120313530D540DD5005508DB00CB
:101198005B08031DD028D128DA280030D40000309D
:1011A800D3000030D2000030D1003F295108D500CB
:1011B8005208D6005308D7005408D8001F3003102F
:1011C800D80CD70CD60CD50CFF3E031DE3285508C8
:1011D800D9005908DA00D317FF30D105FF30D205FE
:1011E800FF30D3050030D4059630DB02DB1FFD2825
:1011F800FE2818295B08803A973E03180429052918
:101208000629D12801300310D40CD30CD20CD10CF0
:10121800FF3E031D07290130D5005508DB07031DD4
:101228001629172906292F2920305B02031C1D299E
:101238001E292A29D1280130D5000310D10DD20D3D
:10124800D30DD40DD50B21290130DB025B08031D1A
:101258002E292F291F295A080319332934293F29F0
:10126800D109D209D309D409D10A0319D20A031919
:10127800D30A0319D40A080083120313D000D01F1D
:1012880046294729F42AD009D00A5008803A123E44
:10129800031C4F295029382A0A30F7000030F8007B
:1012A8005008F200F301F21BF3036430F000003041
:1012B800F1000A168A1596240A128A157108FA008E
:1012C8007008F9000A168A15B6250A128A157708D1
:1012D80083120313C20001300310C20DFF3E031D29
:1012E80070290310420D593E84000A128A150A20FB
:1012F8000A128A15C3000A128A150A200A128A15C8
:10130800C4000A128A150A200A128A15C5000A1290
:101318008A150A200A128A15C6004608A700450839
:10132800A6004408A5004308A4006430F700003074
:10133800F8005008F900FA01F91BFA030A168A1591
:10134800B6250A128A15770883120313C7000130DD
:101358000310C70DFF3E031DAC290310470D7D3E4A
:1013680084000A128A150A200A128A15C8000A126D
:101378008A150A200A128A15C9000A128A150A2033
:101388000A128A15CA000A128A150A200A128A1530
:10139800CB004B08AB004A08AA004908A900480836
:1013A800A8000A128A159F240A128A1583120313A9
:1013B8002708CF002608CE002508CD002408CC0039
:1013C8000A30F0000030F1005008F200F301F21B7F
:1013D800F3030A168A1596240A128A1570088312CE
:1013E8000313C20001300310C20DFF3E031DF7298D
:1013F8000310420D353E84000A128A150A200A128B
:101408008A15C3000A128A150A200A128A15C4000E
:101418000A128A150A200A128A15C5000A128A15A4
:101428000A200A128A15C6004608A7004508A60021
:101438004408A5004308A4004F08AB004E08AA00C2
:101448004D08A9004C08A8000A128A159F240A1200
:101458008A15831203132708C1002608C00025082F
:10146800BF002408BE009E2C5008803A753E031C1D
:101478003E2A3F2AC72A0A30F0000030F1005008FF
:10148800F200F301F21BF3030A168A1596240A12D6
:101498008A15700883120313C20001300310C20DAD
:1014A800FF3E031D522A0310420D353E84000A12E6
:1014B8008A150A200A128A15C3000A128A150A20F8
:1014C8000A128A15C4000A128A150A200A128A15F5
:1014D800C5000A128A150A200A128A15C60046088B
:1014E800A7004508A6004408A5004308A4000A3040
:1014F800F7000030F8005008F900FA01F91BFA0368
:101508000A168A15B6250A128A1577088312031354
:10151800C70001300310C70DFF3E031D8E2A0310BC
:10152800470D593E84000A128A150A200A128A15A4
:10153800C8000A128A150A200A128A15C9000A1256
:101548008A150A200A128A15CA000A128A150A2060
:101558000A128A15CB004B08AB004A08AA004908B2
:10156800A9004808A8000A128A159F240A128A1599
:10157800831203132708C1002608C0002508BF00EE
:101588002408BE009E2C5008C20001300310C20D72
:10159800FF3E031DCA2A0310420D353E84000A127D
:1015A8008A150A200A128A15C3000A128A150A2007
:1015B8000A128A15C4000A128A150A200A128A1504
:1015C800C5000A128A150A200A128A15C60046089A
:1015D800C1004508C0004408BF004308BE009E2C57
:1015E8005008803A123E031CFA2AFB2AE32B0A30E1
:1015F800F7000030F8005008F200F301F21BF30383
:101608006430F0000030F1000A168A1596240A1298
:101618008A157108FA007008F9000A168A15B625A5
:101628000A128A15770883120313C20001300310C7
:10163800C20DFF3E031D1B2B0310420D253E8400E7
:101648000A128A150A200A128A15C3000A128A1574
:101658000A200A128A15C4000A128A150A200A12D8
:101668008A15C5000A128A150A200A128A15C600A8
:101678004608A7004508A6004408A5004308A4009A
:101688006430F7000030F8005008F900FA01F91B3F
:10169800FA030A168A15B6250A128A1577088312DC
:1016A8000313C70001300310C70DFF3E031D572B5E
:1016B8000310470D493E84000A128A150A200A12AF
:1016C8008A15C8000A128A150A200A128A15C90042
:1016D8000A128A150A200A128A15CA000A128A15DD
:1016E8000A200A128A15CB004B08AB004A08AA0048
:1016F8004908A9004808A8000A128A159F240A1256
:101708008A15831203132708CF002608CE00250860
:10171800CD002408CC000A30F0000030F100500859
:10172800F200F301F21BF3030A168A1596240A1233
:101738008A15700883120313C20001300310C20D0A
:10174800FF3E031DA22B0310420D013E84000A1226
:101758008A150A200A128A15C3000A128A150A2055
:101768000A128A15C4000A128A150A200A128A1552
:10177800C5000A128A150A200A128A15C6004608E8
:10178800A7004508A6004408A5004308A4004F0880
:10179800AB004E08AA004D08A9004C08A8000A1280
:1017A8008A159F240A128A15831203132708C10079
:1017B8002608C0002508BF002408BE009E2C50083B
:1017C800803A753E031CE92BEA2B722C0A30F00094
:1017D8000030F1005008F200F301F21BF3030A167F
:1017E8008A1596240A128A15700883120313C200F8
:1017F80001300310C20DFF3E031DFD2B0310420DE7
:10180800013E84000A128A150A200A128A15C300AA
:101818000A128A150A200A128A15C4000A128A15A1
:101828000A200A128A15C5000A128A150A200A1205
:101838008A15C6004608A7004508A6004408A50062
:101848004308A4000A30F7000030F8005008F900F7
:10185800FA01F91BFA030A168A15B6250A128A151F
:10186800770883120313C70001300310C70DFF3E2A
:10187800031D392C0310470D253E84000A128A15D2
:101888000A200A128A15C8000A128A150A200A12A2
:101898008A15C9000A128A150A200A128A15CA006E
:1018A8000A128A150A200A128A15CB004B08AB00C7
:1018B8004A08AA004908A9004808A8000A128A1577
:1018C8009F240A128A15831203132708C1002608C9
:1018D800C0002508BF002408BE009E2C5008C20086
:1018E80001300310C20DFF3E031D752C0310420D7D
:1018F800013E84000A128A150A200A128A15C300BA
:101908000A128A150A200A128A15C4000A128A15B0
:101918000A200A128A15C5000A128A150A200A1214
:101928008A15C6004608C1004508C0004408BF0023
:101938004308BE0008008312031327088039AC004F
:101948002C08B1002708AC002C07AD002D08B70003
:10195800A61FAF2CB02CB12C371437080319B52C9F
:10196800B62CC52C370A031DBA2CBB2CC32C00304F
:10197800A7000030A6000030A5000030A400A6177C
:10198800CD2C0030A7000030A6000030A5000030A4
:10199800A4002B088039AC002C08B1062B08AC0039
:1019A8002C07AD002D08B600AA1FDB2CDC2CDD2C83
:1019B800361436080319E12CE22CF12C360A031DE3
:1019C800E62CE72CEF2C0030AB000030AA000030EA
:1019D800A9000030A800AA17F92C0030AB0000308D
:1019E800AA000030A9000030A80036080319FD2C11
:1019F800FE2C032D3708031D022D032D0C2D00305E
:101A0800A7000030A6000030A5000030A400FF2F7A
:101A18002408AC002C08F0002A080A168A1521238D
:101A28000A128A15710883120313BD007008BC00DE
:101A38003C08AC00AD01AE01AF012F08B5002E087F
:101A4800B4002D08B3002C08B2003D08AC00AD016D
:101A5800AE01AF012F08BB002E08BA002D08B9004F
:101A68002C08B8002508AC002C08F00029080A1634
:101A78008A1521230A128A15710883120313BD00DF
:101A88007008BC003C08AC00AD01AE01AF012C08E9
:101A9800B2072D0803110318013E0319542DB3078B
:101AA8002E0803110318013E03195B2DB4072F08F4
:101AB80003110318013E0319622DB5073D08AC0058
:101AC800AD01AE01AF012C08B8072D0803110318AA
:101AD800013E0319702DB9072E0803110318013EA2
:101AE8000319772DBA072F0803110318013E0319AC
:101AF8007E2DBB072608AC002C08F00028080A1623
:101B08008A1521230A128A15710883120313BD004E
:101B18007008BC003C08AC00AD01AE01AF012C0858
:101B2800B2072D0803110318013E03199C2DB307B2
:101B38002E0803110318013E0319A32DB4072F081B
:101B480003110318013E0319AA2DB5073D08AC007F
:101B5800AD01AE01AF012C08B8072D080311031819
:101B6800013E0319B82DB9072E0803110318013EC9
:101B78000319BF2DBA072F0803110318013E0319D3
:101B8800C62DBB070830AC000310B20DB30DB40D61
:101B9800B50DAC0BC82D2508AC002C08F0002808A2
:101BA8000A168A1521230A128A157108831203134B
:101BB800BD007008BC003C08AC003D08AD00AE019B
:101BC800AF012C08B2072D0803110318013E0319B1
:101BD800EE2DB3072E0803110318013E0319F52D46
:101BE800B4072F0803110318013E0319FC2DB5078C
:101BF8002408AC002C08F00029080A168A152123AD
:101C08000A128A15710883120313BD007008BC00FC
:101C18003C08AC003D08AD00AE01AF012C08B2078E
:101C28002D0803110318013E03191B2EB3072E08B4
:101C380003110318013E0319222EB4072F080311BC
:101C48000318013E0319292EB5070830AC0003100C
:101C5800B20DB30DB40DB50DAC0B2B2E2408AC0092
:101C68002C08F00028080A168A1521230A128A155A
:101C7800710883120313BD007008BC003C08AC0057
:101C88003D08AD00AE01AF012C08B2072D080311C5
:101C98000318013E0319512EB3072E080311031828
:101CA800013E0319582EB4072F0803110318013EEB
:101CB80003195F2EB5072508AC002C08F0002A0888
:101CC8000A168A1521230A128A157108831203132A
:101CD800BD007008BC003C08AC003D08AD00AE017A
:101CE800AF012C08B8072D0803110318013E03198A
:101CF8007E2EB9072E0803110318013E0319852EFD
:101D0800BA072F0803110318013E03198C2EBB07CD
:101D18002608AC002C08F00029080A168A15212389
:101D28000A128A15710883120313BD007008BC00DB
:101D38003C08AC003D08AD00AE01AF012C08B80767
:101D48002D0803110318013E0319AB2EB9072E08FD
:101D580003110318013E0319B22EBA072F08031105
:101D68000318013E0319B92EBB072608AC002C083E
:101D7800F0002A080A168A1521230A128A15710802
:101D880083120313BD007008BC003C08AC003D087A
:101D9800AD00AE01AF0108300310AC0DAD0DAE0DB6
:101DA800AF0DFF3E031DD02E2C08B8072D080311D8
:101DB8000318013E0319E12EB9072E080311031871
:101DC800013E0319E82EBA072F0803110318013E34
:101DD8000319EF2EBB073208AC003308AD003408F6
:101DE800AE003508AF0018300310AF0CAE0CAD0CC8
:101DF800AC0CFF3E031DF82E2C08B8072D08031164
:101E08000318013E0319092FB9072E0803110318F7
:101E1800013E0319102FBA072F0803110318013EBA
:101E28000319172FBB070830AC000310B20DB30D10
:101E3800B40DB50DAC0B192F37083607AC00AD0142
:101E4800AD0D2C08823EBC002D080318013EFF3E54
:101E5800BD004B2F0130AC000310B80DB90DBA0D01
:101E6800BB0DAC0B302FB51F3A2F3B2F3C2F38142E
:101E78000130AC000310B20DB30DB40DB50DAC0BB1
:101E88003E2FFF30BC070318BD0AFF30BD07BA1F3D
:101E98004E2F4F2F2E2FB601B51F532F542F702FB3
:101EA800FF303205AC00FF303305AD00FF3034059C
:101EB800AE007F303505AF002F082E042D042C040A
:101EC8000319672F682F6B2FB601B60A702F381CBD
:101ED8006E2F6F2F702F682F36080319742F752FE8
:101EE800A62F0130B807003003180130B9070030B9
:101EF80003180130BA07003003180130BB073B1C38
:101F0800862F872FA62F3808AC003908AD003A086D
:101F1800AE003B08AF000130B0002F0DAF0CAE0C87
:101F2800AD0CAC0CB00B912F2F08BB002E08BA00DB
:101F38002D08B9002C08B8000130BC070318BD0AE9
:101F48000030BD073D08803AFF0080307F02031D46
:101F5800AF2FFF303C02031CB22FB32FBE2F7F30B0
:101F680083120313BB008030BA000030B900003080
:101F7800B800F32F831203133D08803AFF00803026
:101F88007F02031DC92F01303C020318CC2FCD2F2F
:101F9800D92F003083120313BB000030BA00003081
:101FA800B9000030B800B101F32F831203133C08C5
:101FB800AC002C08B700FF30B805FF30B9057F30FA
:101FC800BA050030BB05371CEA2FEB2FEC2FBA17E8
:101FD8003708AC0003102C0CAD002D08BB003108ED
:101FE800AC002C08BB043B08A7003A08A600390837
:081FF800A5003808A400080050
:10200200831603138601FF308700FF308316031700
:1020120088000A128A1105200A168A110A168A15E0
:10202200BE220A168A1108007008F8007108F90029
:102032007208FA000310790D7A0DFB007B088312F7
:102042000313A5002508031D27282828312800305E
:10205200F3000030F2000030F1000030F000D1282F
:102062007408F8007508F9007608FA000310790D73
:102072007A0DFB007B08A4002408031D4128422896
:1020820043282828F117FF30F005FF30F105003012
:10209200F205F517FF30F405FF30F5050030F605BF
:1020A2000030A3000030A2000030A1000030A000E8
:1020B2007F30A50298302407F8007808A50218306E
:1020C200F8007808A4000130F8000310A00DA10D5B
:1020D200A20DA30DF80B662876087202031D77285D
:1020E20075087102031D772874087002031C7A2890
:1020F2007B2886287408F0027508031C750FF1020C
:102102007608031C760AF202201401300310F00D47
:10211200F10DF20DFF3E031D87280130A402031DBD
:10212200932894286428A51F97289828B228250860
:10213200803A973E03189E289F28A028282801301D
:102142000310A30CA20CA10CA00CFF3E031DA1289E
:102152000130F8007808A507031DB028B128A0288F
:10216200C92818302502031CB728B828C4282828F3
:102172000130F8000310A00DA10DA20DA30DF80B64
:10218200BB280130A5022508031DC828C928B92883
:102192002308F3002208F2002108F1002008F000D1
:1021A20008000310720D730DF800780883120313F0
:1021B200A5002508031DDE28DF28E8280030F300EB
:1021C2000030F2000030F1000030F0008F290310DF
:1021D200760D770DF8007808A4002408031DF22874
:1021E200F328F428DF28F217FF30F005FF30F1055D
:1021F200FF30F2050030F305F617FF30F405FF302B
:10220200F505FF30F6050030F7050030A300003079
:10221200A2000030A1000030A0007F30A502A03053
:102222002407F8007808A5022030F8007808A400F6
:102232000130F8000310A00DA10DA20DA30DF80BA3
:102242001B2977087302031D302976087202031DC9
:10225200302975087102031D302974087002031CAD
:102262003329342943297408F0027508031C750FB9
:10227200F1027608031C760FF2027708031C770F2F
:10228200F30220140130F8000310F00DF10DF20DED
:10229200F30DF80B45290130A402031D51295229DF
:1022A2001929A51F5529562970292508803A9F3ECC
:1022B20003185C295D295E29DF2801300310A30C75
:1022C200A20CA10CA00CFF3E031D5F290130F800F7
:1022D2007808A507031D6E296F295E2987292030FA
:1022E2002502031C752976298229DF280130F8008E
:1022F2000310A00DA10DA20DA30DF80B7929013039
:10230200A5022508031D8629872977292308F300BA
:102312002208F2002108F1002008F00008008316CC
:10232200031327088039A8002808B1002708A8004D
:102332002807A9002908B800A61FA029A129A229B7
:10234200381438080319A629A729B729380A031D02
:10235200AB29AC29B4290030A7000030A600003018
:10236200A5000030A400A617A701BF290030A700CE
:102372000030A6000030A5000030A40023088039F8
:10238200A8002808B1062308A8002807A9002908E0
:10239200B900A21FCD29CE29CF2939143908031932
:1023A200D329D429E429390A031DD829D929E129B5
:1023B2000030A3000030A2000030A1000030A000D5
:1023C200A217A301EC290030A3000030A2000030C4
:1023D200A1000030A0002308220421042004031DD0
:1023E200F329F4290D2A0030A7000030A60000309E
:1023F200A5000030A4008030A6047F30A704310875
:10240200A8002808A7042708A3002608A200250878
:10241200A1002408A0006C2B3808031D112A122ADF
:102422001B2A0030A3000030A2000030A1000030BF
:10243200A0006C2B3808A800A9012908AB003908B4
:102442002802AA00031CAB032A087F3EB2002B0815
:102452000318013E003EB3002708B0002608AF0073
:102462002508AE002408AD000030A7000030A60009
:102472000030A5000030A4000030B7000030B600E4
:102482000030B5000030B400B901912A39080319AF
:102492004B2A4C2A6C2A0130A8000310AD0DAE0D58
:1024A200AF0DB00DA80B4E2A0130A8000310A40DE9
:1024B200A50DA60DA70DA80B572AB71F612A622AE0
:1024C200632A24140130A8000310B40DB50DB60D13
:1024D200B70DA80B652A23083002031D7A2A2208A9
:1024E2002F02031D7A2A21082E02031D7A2A2008B0
:1024F2002D02031C7D2A7E2A8D2A37172008AD0261
:102502002108031C210FAE022208031C220FAF0276
:102512002308031C230FB0020130A8002808B907C2
:102522001A303902031C962A972A472A30082F04A8
:102532002E042D0403199E2A9F2ABE2A3414BE2A71
:102542000130A8000310A40DA50DA60DA70DA80B20
:10255200A32AB71FAD2AAE2AAF2A24140130A8003D
:102562000310B40DB50DB60DB70DA80BB12AFF308F
:10257200B2070318B30AFF30B307A61FC12AC22A43
:10258200A12AB901B71FC62AC72AE32AFF30340598
:10259200A800FF303505A900FF303605AA007F30BC
:1025A2003705AB002B082A04290428040319DA2A68
:1025B200DB2ADE2AB901B90AE32A241CE12AE22A2B
:1025C200E32ADB2A39080319E72AE82A192B013002
:1025D200A407003003180130A507003003180130AA
:1025E200A607003003180130A707271CF92AFA2A88
:1025F200192B2408A8002508A9002608AA002708E4
:10260200AB000130AC002B0DAB0CAA0CA90CA80C32
:10261200AC0B042B2B08A7002A08A6002908A5004A
:102622002808A4000130B2070318B30A0030B30728
:102632003308803AFF0080307F02031D222BFF30D7
:102642003202031C252B262B342BFF308316031357
:10265200B2000030B3000030A7000030A600003006
:10266200A5000030A400831603133308803AFF004C
:1026720080307F02031D3F2B013032020318422BB0
:10268200432B502B83160313B201B3010030A70072
:102692000030A6000030A5000030A400B10183166E
:1026A20003133208A8002808B800381C592B5A2BEB
:1026B2005C2BA617602B7F30A8002808A6053808D7
:1026C200A8000310280CA9002908A7003108A800B7
:1026D2002808A704042A080083120313D1006E30CD
:1026E2005102031C752B762B832C3F30A700003040
:1026F200A6000030A5000030A4006430F6000030CF
:10270200F7005108C200C3014208F8004308F9006B
:102712000A168A15B0230A168A1176088312031341
:10272200C40001300310C40DFF3E031D932B0310A0
:10273200440D7D3E84000A128A150A200A168A1167
:10274200C5000A128A150A200A168A11C6000A1240
:102752008A150A200A168A11C7000A128A150A2047
:102762000A168A11C8004808AB004708AA004608A2
:10277200A9004508A8000A128A159F240A168A1180
:10278200831203132708D0002608CF002508CE00A5
:102792002408CD000A30F6000030F7005108C200CC
:1027A200C3014208F2004308F3006430F000003035
:1027B200F1000A168A1576230A168A117108F900A1
:1027C2007008F8000A168A15B0230A168A117608CC
:1027D20083120313C40001300310C40DFF3E031D16
:1027E200ED2B0310440D593E84000A128A150A206B
:1027F2000A168A11C5000A128A150A200A168A11B7
:10280200C6000A128A150A200A168A11C7000A127D
:102812008A150A200A168A11C8004808A700470824
:10282200A6004608A5004508A4005008AB004F08C2
:10283200AA004E08A9004D08A8000A128A159F2472
:102842000A168A11831203132708CC002608CB002C
:102852002508CA002408C9000A30F0000030F1003F
:102862005108C200C3014208F2004308F3000A16ED
:102872008A1576230A168A11700883120313C4007C
:1028820001300310C40DFF3E031D422C0310440D02
:10289200353E84000A128A150A200A168A11C500DA
:1028A2000A128A150A200A168A11C6000A128A1505
:1028B2000A200A168A11C7000A128A150A200A1665
:1028C2008A11C8004808A7004708A6004608A500C4
:1028D2004508A4004C08AB004B08AA004A08A9000E
:1028E2004908A8000A128A159F240A168A1183121F
:1028F20003132708C1002608C0002508BF002408CA
:10290200BE00772D0B305102031C882C892C342DEC
:102912003F30A7000030A6000030A5000030A40020
:102922000A30F6000030F7005108C200C301420825
:10293200F8004308F9000A168A15B0230A168A110C
:10294200760883120313C40001300310C40DFF3E46
:10295200031DA62C0310440D593E84000A128A1549
:102962000A200A168A11C5000A128A150A200A16B6
:102972008A11C6000A128A150A200A168A11C7008D
:102982000A128A150A200A168A11C8004808AB00E2
:102992004708AA004608A9004508A8000A128A1595
:1029A2009F240A168A11831203132708D0002608CF
:1029B200CF002508CE002408CD000A30F0000030F8
:1029C200F1005108C200C3014208F2004308F300BB
:1029D2000A168A1576230A168A11700883120313BF
:1029E200C40001300310C40DFF3E031DF32C03107D
:1029F200440D353E84000A128A150A200A168A11ED
:102A0200C5000A128A150A200A168A11C6000A127D
:102A12008A150A200A168A11C7000A128A150A2084
:102A22000A168A11C8004808A7004708A6004608E7
:102A3200A5004508A4005008AB004F08AA004E08A4
:102A4200A9004D08A8000A128A159F240A168A11A5
:102A5200831203132708C1002608C0002508BF00FF
:102A62002408BE00772D3F30A7000030A6000030BA
:102A7200A5000030A4005108C20001300310C20DAD
:102A8200FF3E031D3F2D0310420D353E84000A1206
:102A92008A150A200A168A11C3000A128A150A2008
:102AA2000A168A11C4000A128A150A200A168A1105
:102AB200C5000A128A150A200A168A11C60046089B
:102AC200AB004508AA004408A9004308A8000A125E
:102AD2008A159F240A168A11831203132708C1003C
:102AE2002608C0002508BF002408BE000800831283
:102AF200031355088039DA005A08E2005508DA0053
:102B02005A07DB005B08E400D41F882D892D8A2D2B
:102B12006414640803198E2D8F2D9F2D640A031DE2
:102B2200932D942D9C2D0030D5000030D400003020
:102B3200D3000030D200D417D501A72D0030D50024
:102B42000030D4000030D3000030D2005908803960
:102B5200DA005A08E300630862060319B12DB22DA8
:102B6200B32D62175908DA005A07DB005B08E3004D
:102B7200D81FBC2DBD2DBE2D631463080319C22DB1
:102B8200C32DD32D630A031DC72DC82DD02D0030B0
:102B9200D9000030D8000030D7000030D600D81756
:102BA200D901DB2D0030D9000030D8000030D70029
:102BB2000030D600640863020318E02DE12D252EB3
:102BC200621FE42DE52DE92D8030DA005A08E20675
:102BD2006408DA005A08E5006308DA005A08E400DB
:102BE2006508DA005A08E3005208DA005A08E500DC
:102BF2005608DA005A08D2006508DA005A08D600E8
:102C02005308DA005A08E5005708DA005A08D300D8
:102C12006508DA005A08D7005408DA005A08E500B5
:102C22005808DA005A08D4006508DA005A08D800B1
:102C32005508DA005A08E5005908DA005A08D500A2
:102C42006508DA005A08D900E5016308DA00DB01F9
:102C52005B08DD0064085A02DC00031CDD035D082A
:102C6200803AFF0080307F02031D392E1A305C0249
:102C7200031C3C2E3D2E7A2E831203135508540456
:102C820053045204031D462E482E0130492E0030B3
:102C9200DA005A08E5000030D5000030D4000030D8
:102CA200D3000030D2006308DA005A08E400822E12
:102CB200651C5C2E5D2E662E6508DA0003105A0C28
:102CC2000138DB005B08E500682E0310E50C521C9E
:102CD2006B2E6C2E6D2EE5170130DA00550DD50CDA
:102CE200D40CD30CD20CDA0B6F2E0130DA005A0856
:102CF200E4078312031363086402031C812E822EED
:102D0200592E621B852E862ED12E6408031D8A2E13
:102D12008B2E942E0030D5000030D4000030D3002A
:102D22000030D200FF2F5608D207570803110318AC
:102D3200013E03199D2ED307580803110318013EC3
:102D42000319A42ED407590803110318013E0319CD
:102D5200AB2ED507551CAE2EAF2E852F651CB22E7D
:102D6200B32EBC2E6508DA0003105A0C0138DB00C2
:102D72005B08E500BE2E0310E50C521CC12EC22ECC
:102D8200C32EE5170130DA00550DD50CD40CD30C47
:102D9200D20CDA0BC52E0130DA005A08E407852F6F
:102DA2005508803AFF005908803A7F02031DE32E3E
:102DB20058085402031DE32E57085302031DE32E45
:102DC200560852020318E62EE72E3F2FFF30DA0094
:102DD200FF30DB00FF30DC00FF30DD005608DE0094
:102DE2005708DF005808E0005908E1005208DE02E7
:102DF2005308031C530FFE2EFF2EDF025408031C40
:102E0200540F042F052FE0025508031C550F0A2FFB
:102E12000B2FE1025E08DA075F0803185F0F122F1B
:102E2200132FDB0760080318600F182F192FDC0718
:102E320061080318610ADD075D08D5005C08D4004B
:102E42005B08D3005A08D2008030DA005A08E20642
:102E5200E509E50A6508031D2F2F302F4D2F01309C
:102E6200D207003003180130D307003003180130B5
:102E7200D407003003180130D5074D2F5608D2026F
:102E82005708031C570FD3025808031C580FD402CB
:102E92005908031C590FD50255085404530452040F
:102EA200031D542F552F812F6508031D592F5A2FAB
:102EB200812F0030D5000030D4000030D300003024
:102EC200D200FF2F0130DA000310D20DD30DD40D42
:102ED200D50DDA0B652FE51F6F2F702F712F52144E
:102EE200651C742F752F782F0314E50D7A2F0310AC
:102EF200E50D640803197E2F7F2F812F0130E40234
:102F0200D41F842F852F632FE301E51F892F8A2F7A
:102F1200982F65087F3903198F2F902F932FE30184
:102F2200E30A982F521C962F972F982F902F630801
:102F320003199C2F9D2FD12F0130D2070030031887
:102F42000130D307003003180130D40700300318D2
:102F52000130D507551CAE2FAF2FD12F5208DA0002
:102F62005308DB005408DC005508DD000130DE00A8
:102F72005D0DDD0CDC0CDB0CDA0CDE0BB92F5D0811
:102F8200D5005C08D4005B08D3005A08D200640A5A
:102F92000319CC2FCD2FD12F0130DA005A08E407C4
:102FA200640A0319D52FD62FDB2F6408031DDA2FED
:102FB200DB2FE92F0030D5000030D4000030D300E1
:102FC2000030D2006408031DE72FE82FE92FE20149
:102FD200641CEC2FED2FEF2FD417F32F7F30DA0084
:102FE2005A08D4056408DA0003105A0CDB005B08A7
:0E2FF200D500E21FFD2FFE2FFF2FD517080080
:10352A00730872047104700403199C2A9D2A9F2A45
:10353A008030F3060800F00083160313981CA62AAD
:10354A00A72AA12A70088312031399000800F10020
:10355A00F0013A3071020318B32AB42ABC2A303077
:10356A007102031CB92ABA2ABC2AF001F00A700CAB
:10357A000800831603138514831203131F08C33923
:10358A0004389F00831603139F121F12831203131A
:10359A001F083F3980389F00831603139F17831231
:1035AA0003131F140800803083120313E9066D0801
:1035BA00D5006C08D4006B08D3006A08D2006908E9
:1035CA00D9006808D8006708D7006608D6000A1626
:1035DA008A1178250A168A15831203135508E900F9
:1035EA005408E8005308E7005208E6000800F4010E
:1035FA00F501701C012B022B082B7208F407031823
:10360A00F50A7308F50701300310F20DF30DFF3EBA
:10361A00031D092B01300310F10CF00CFF3E031DB2
:10362A00102B70087104031D1B2B1C2BFE2A750816
:10363A00F1007408F0000800F800F401F5017008C0
:10364A00F200F3017208F6007308F700781C2E2BBB
:10365A002F2B352B7608F4070318F50A7708F50798
:10366A0001300310F60DF70DFF3E031D362B031034
:10367A00F80C7808031D422B432B2B2B7508F100FD
:10368A007408F0000800F301F401622B7308710753
:10369A00840072080318720AFF000A128A150020B1
:1036AA000A168A150A168A15A0220A168A150130E0
:1036BA00F3070318F40A0030F4077308710784004B
:1036CA0072080318720A83120313FF000A128A157A
:1036DA0000200A168A15003A031D742B752B4B2BF2
:1036EA0008007008710403197B2B7C2BAB2BF501A6
:1036FA00F50A8A2B01300310F00DF10DFF3E031D70
:10370A00802B0130F4007408F507F11F8D2B8E2BE6
:10371A007F2B71087302031D942B70087202031C1D
:10372A00972B982B9E2B7008F2027108031CF30347
:10373A00F30201300310F10CF00CFF3E031D9F2B26
:10374A000130F502031DAA2BAB2B8E2B7308F10057
:10375A007208F0000800FB01FC01760877040319DF
:10376A00B72BB82BEF2BFD01FD0AC62B0130031036
:10377A00F60DF70DFF3E031DBC2B0130FA007A0847
:10378A00FD07F71FC92BCA2BBB2B01300310FB0DFA
:10379A00FC0DFF3E031DCB2B77087902031DD72BA7
:1037AA0076087802031CDA2BDB2BE22B7608F80268
:1037BA007708031CF903F9027B1401300310F70C94
:1037CA00F60CFF3E031DE32B0130FD02031DEE2B19
:1037DA00EF2BCA2B7C08F7007B08F60008000030A4
:1037EA007005F80000307105F90080307205FA00A2
:1037FA007F307305FB007B087A0479047804031D83
:10380A00072C082C102C0030F3000030F200003096
:10381A00F1000030F00000307405F8000030750542
:10382A00F90080307605FA007F307705FB007B08C7
:10383A007A0479047804031D232C242C2C2C0030C0
:10384A00F7000030F6000030F5000030F400770889
:10385A007306031D3A2C76087206031D3A2C750866
:10386A007106031D3A2C7408700603193D2C3E2C70
:10387A00402C0310412C03140800730872047104CD
:10388A0070040319492C4A2C8D2CF901F90A5A2C77
:10389A000130F8000310F00DF10DF20DF30DF80BE5
:1038AA004F2C0130F8007808F907F31F5D2C5E2CC5
:1038BA004D2C73087702031D6C2C72087602031DC7
:1038CA006C2C71087502031D6C2C70087402031CA1
:1038DA006F2C702C7E2C7008F4027108031C710F77
:1038EA00F5027208031C720FF6027308031C730FA9
:1038FA00F70201300310F30CF20CF10CF00CFF3E4E
:10390A00031D7F2C0130F902031D8C2C8D2C5E2C9B
:10391A007708F3007608F2007508F1007408F000E1
:10392A000800F601F31F9A2C9B2CA22CF209F3092A
:10393A00F20A0319F30AF601F60AF11FA52CA62CBE
:10394A00AB2CF009F109F00A0319F10A70087104A5
:10395A000319B02CB12CE02CF501F50ABF2C01306B
:10396A000310F00DF10DFF3E031DB52C0130F400DC
:10397A007408F507F11FC22CC32CB42C710873020A
:10398A00031DC92C70087202031CCC2CCD2CD32C1D
:10399A007008F2027108031CF303F30201300310EA
:1039AA00F10CF00CFF3E031DD42C0130F502031D6F
:1039BA00DF2CE02CC32C76080319E42CE52CEA2C26
:1039CA00F209F309F20A0319F30A7308F1007208FB
:1039DA00F0000800443083160313A3007F30A200CE
:1039EA00C030A1000030A000403083120313A700AA
:1039FA00A030A6000030A5000030A40083160313EF
:103A0A003A08F0003B08F100F201F30100300A160F
:103A1A008A1546270A168A15730883120313AB0000
:103A2A007208AA007108A9007008A8000A128A156B
:103A3A009F240A168A158312031327088316031371
:103A4A00A70083120313260883160313A600831202
:103A5A000313250883160313A500831203132408EE
:103A6A0083160313A4000A168A1190210A168A15CE
:103A7A00831603132308C1002208C0002108BF00CF
:103A8A002008BE004108BD004008BC003F08BB003A
:103A9A003E08BA0008000030FC000030FB0000308D
:103AAA00FA000030F90073087204710470040319F3
:103ABA005F2D602DAD2DFD01FD0A702D0130F8003E
:103ACA000310F00DF10DF20DF30DF80B652D013019
:103ADA00F8007808FD07F31F732D742D632D01304C
:103AEA00F8000310F90DFA0DFB0DFC0DF80B762DFD
:103AFA0073087702031D8B2D72087602031D8B2D26
:103B0A0071087502031D8B2D70087402031C8E2D1B
:103B1A008F2D9E2D7008F4027108031C710FF50297
:103B2A007208031C720FF6027308031C730FF70264
:103B3A00791401300310F30CF20CF10CF00CFF3E77
:103B4A00031D9F2D0130FD02031DAC2DAD2D742DDB
:103B5A007C08F3007B08F2007A08F1007908F0008B
:103B6A00080083120313A101F81FBC2DBD2DC42D1B
:103B7A00F709F809F70A0319F80AA101A10AFA1FB5
:103B8A00C72DC82DD12DF909FA09F90A0319FA0A1C
:103B9A000130FB007B08A106A201A3017708780483
:103BAA000319D82DD92D102EA001A00AE72D013016
:103BBA000310F70DF80DFF3E031DDD2D0130FB004C
:103BCA007B08A007F81FEA2DEB2DDC2D013003102E
:103BDA00A20DA30DFF3E031DEC2D78087A02031DEA
:103BEA00F82D77087902031CFB2DFC2D032E77088C
:103BFA00F9027808031CFA03FA02221401300310AE
:103C0A00F80CF70CFF3E031D042E0130A002031D21
:103C1A000F2E102EEB2D21080319142E152E1A2EF5
:103C2A00A209A309A20A0319A30A2308F800220871
:103C3A00F70008000A168A1101200A168A150230AE
:103C4A0083160313CC000430CB00B930CA00CA0B68
:103C5A002C2ECB0B2C2ECC0B2C2E332EA730F10076
:103C6A008030F2000A168A1548230A168A1583122A
:103C7A0003139F149F18422E432E3F2E1E088316AD
:103C8A000313EA001E08E9006A08BB006908BA00C3
:103C9A000A128A112E200A168A15831603133D0862
:103CAA00E4003C08E3003B08E2003A08E1006A0845
:103CBA00BB006908BA000A168A15EF240A168A1583
:103CCA00831603133D08E8003C08E7003B08E600BA
:103CDA003A08E5009130CA004A08A0006408A40026
:103CEA006308A3006208A2006108A1006808A8008E
:103CFA006708A7006608A6006508A500CD300A1265
:103D0A008A11A4210A168A15CD30F1000030F2007A
:103D1A000A168A1548230A168A150B3083160313C6
:103D2A00CC002630CB005D30CA00CA0B9A2ECB0BD2
:103D3A009A2ECC0B9A2E3C2E0A128A110028003099
:103D4A007005F80000307105F90080307205FA003C
:103D5A007F307305FB007B087A0479047804031D1D
:103D6A00B72EB82EC02E0030F3000030F20000301B
:103D7A00F1000030F00000307405F80000307505DD
:103D8A00F90080307605FA007F307705FB007B0862
:103D9A007A0479047804031DD32ED42EDC2E003045
:103DAA00F7000030F6000030F5000030F400F31F91
:103DBA00DF2EE02E042F0030F8000030F90000302A
:103DCA00FA008030FB007008F8027108031C710FBA
:103DDA00EF2EF02EF9027208031C720FF52EF62E42
:103DEA00FA027308031C730FFB2EFC2EFB027B08DE
:103DFA00F3007A08F2007908F1007808F000F71F5A
:103E0A00072F082F2C2F0030F8000030F90000305F
:103E1A00FA008030FB007408F8027508031C750F5D
:103E2A00172F182FF9027608031C760F1D2F1E2F45
:103E3A00FA027708031C770F232F242FFB027B0833
:103E4A00F7007A08F6007908F5007808F40080305F
:103E5A00F3068030F70677087302031D3E2F7608B3
:103E6A007202031D3E2F75087102031D3E2F74084E
:103E7A0070020318412F422F442F0310452F0314B9
:103E8A000800F800780803194B2F4C2F602FF31FF6
:103E9A004F2F502F602F7009FA007109FB00720929
:103EAA00FC007309FD00FA0A0319FB0A0319FC0A4C
:103EBA000319FD0A682F7308FD007208FC007108D7
:103ECA00FB007008FA007308720471047004031D81
:103EDA006F2F702F792F0030F3000030F20000307E
:103EEA00F1000030F000FF2F9630F4007408F9005A
:103EFA008B2F0130F4007408F90701300310FD0C10
:103F0A00FC0CFB0CFA0CFF3E031D832FFE307D05D3
:103F1A00031D902F912F7E2FAD2F0130F4007408CE
:103F2A00F9070130FA07003003180130FB070030A7
:103F3A0003180130FC07003003180130FD07013077
:103F4A000310FD0CFC0CFB0CFA0CFF3E031DA52F05
:103F5A00FF307D05031DB22FB32F922FBF2F0130E3
:103F6A00F9020130F4000310FA0DFB0DFC0DFD0DF2
:103F7A00F40BB82FFC1BC22FC32FC92F02307902B2
:103F8A000318C82FC92FB42F7918CC2FCD2FD52FAE
:103F9A00FF30FA05FF30FB057F30FC05FF30FD05D9
:103FAA000310F90C7908F400F501F601F70118304D
:103FBA000310F40DF50DF60DF70DFF3E031DDD2F71
:103FCA007408FA047508FB047608FC047708FD04F3
:103FDA0078080319F12FF22FF72FF31FF52FF62F79
:103FEA00F72FFD177D08F3007C08F2007B08F1002B
:063FFA007A08F000080047
:04400E00E1E3FFFEED
:00000001FF
