:020000040000FA
:060000000A128A11FC2F18
:100F7800831603130610861406128312061406300D
:100F8800F2001330F100AD30F000F00BC92FF10B77
:100F9800C92FF20BC92FD02F831203130610063066
:100FA800F2001330F100AD30F000F00BD92FF10B47
:100FB800D92FF20BD92FE02F0310831203138618B1
:100FC8000314003003180130F000F1017008F30039
:100FD8007108F4007318F12FF52F83120313061606
:100FE800F82F831203130612C12F0A128A11002840
:080FF80083010A128A11BC2FCB
:04400E00C4EFFFFFFD
:00000001FF
